:020000040000fa
:080000000002040000000000f2
:020000040000fa
:04000800de02000014
:020000040000fa
:04000c00de02000010
:020000040000fa
:04001000de0200000c
:020000040000fa
:04001400de02000008
:020000040000fa
:04001800de02000004
:020000040000fa
:04001c00de02000000
:020000040000fa
:04002000de020000fc
:020000040000fa
:04002400de020000f8
:020000040000fa
:04002800de020000f4
:020000040000fa
:04002c00de020000f0
:020000040000fa
:04003000de020000ec
:020000040000fa
:04003400de020000e8
:020000040000fa
:04003800de020000e4
:020000040000fa
:04003c00de020000e0
:020000040000fa
:04004000de020000dc
:020000040000fa
:04004400de020000d8
:020000040000fa
:04004800de020000d4
:020000040000fa
:04004c00de020000d0
:020000040000fa
:04005000de020000cc
:020000040000fa
:04005400c8020000de
:020000040000fa
:04005800de020000c4
:020000040000fa
:04005c00de020000c0
:020000040000fa
:04006000de020000bc
:020000040000fa
:04006400de020000b8
:020000040000fa
:04006800de020000b4
:020000040000fa
:04006c00de020000b0
:020000040000fa
:04007000de020000ac
:020000040000fa
:04007400de020000a8
:020000040000fa
:04007800de020000a4
:020000040000fa
:04007c00de020000a0
:020000040000fa
:04008000de0200009c
:020000040000fa
:04008400de02000098
:020000040000fa
:04008800de02000094
:020000040000fa
:04008c00de02000090
:020000040000fa
:04009000de0200008c
:020000040000fa
:04009400de02000088
:020000040000fa
:04009800de02000084
:020000040000fa
:04009c00de02000080
:020000040000fa
:0400a000de0200007c
:020000040000fa
:0400a400de02000078
:020000040000fa
:0400a800de02000074
:020000040000fa
:0400ac00de02000070
:020000040000fa
:0400b000de0200006c
:020000040000fa
:0400b400de02000068
:020000040000fa
:0400b800de02000064
:020000040000fa
:0400bc00de02000060
:020000040000fa
:0400c000de0200005c
:020000040000fa
:0400c400de02000058
:020000040000fa
:0400c800de02000054
:020000040000fa
:0400cc00de02000050
:020000040000fa
:0400d000de0200004c
:020000040000fa
:0400d400de02000048
:020000040000fa
:0400d800de02000044
:020000040000fa
:0400dc00de02000040
:020000040000fa
:0400e000de0200003c
:020000040000fa
:0400e400de02000038
:020000040000fa
:0400e800de02000034
:020000040000fa
:0400ec00de02000030
:020000040000fa
:0400f000de0200002c
:020000040000fa
:0400f400de02000028
:020000040000fa
:0400f800de02000024
:020000040000fa
:0400fc00de02000020
:020000040000fa
:04010000de0200001b
:020000040000fa
:04010400de02000017
:020000040000fa
:04010800de02000013
:020000040000fa
:04010c00de0200000f
:020000040000fa
:04011000de0200000b
:020000040000fa
:04011400de02000007
:020000040000fa
:04011800de02000003
:020000040000fa
:04011c00de020000ff
:020000040000fa
:04012000de020000fb
:020000040000fa
:04012400de020000f7
:020000040000fa
:04012800de020000f3
:020000040000fa
:04012c00de020000ef
:020000040000fa
:04013000de020000eb
:020000040000fa
:04013400de020000e7
:020000040000fa
:04013800de020000e3
:020000040000fa
:04013c00de020000df
:020000040000fa
:04014000de020000db
:020000040000fa
:04014400de020000d7
:020000040000fa
:04014800de020000d3
:020000040000fa
:04014c00de020000cf
:020000040000fa
:04015000de020000cb
:020000040000fa
:04020800de02000012
:020000040000fa
:04020c00de0200000e
:020000040000fa
:04021000de0200000a
:020000040000fa
:04021400de02000006
:020000040000fa
:04021800de02000002
:020000040000fa
:04021c00de020000fe
:020000040000fa
:04022000de020000fa
:020000040000fa
:04022400de020000f6
:020000040000fa
:04022800de020000f2
:020000040000fa
:04022c00de020000ee
:020000040000fa
:04023000de020000ea
:020000040000fa
:04023400de020000e6
:020000040000fa
:04023800de020000e2
:020000040000fa
:04023c00de020000de
:020000040000fa
:04024000de020000da
:020000040000fa
:04024400de020000d6
:020000040000fa
:04024800de020000d2
:020000040000fa
:04024c00de020000ce
:020000040000fa
:04025000de020000ca
:020000040000fa
:04025400c8020000dc
:020000040000fa
:04025800de020000c2
:020000040000fa
:04025c00de020000be
:020000040000fa
:04026000de020000ba
:020000040000fa
:04026400de020000b6
:020000040000fa
:04026800de020000b2
:020000040000fa
:04026c00de020000ae
:020000040000fa
:04027000de020000aa
:020000040000fa
:04027400de020000a6
:020000040000fa
:04027800de020000a2
:020000040000fa
:04027c00de0200009e
:020000040000fa
:04028000de0200009a
:020000040000fa
:04028400de02000096
:020000040000fa
:04028800de02000092
:020000040000fa
:04028c00de0200008e
:020000040000fa
:04029000de0200008a
:020000040000fa
:04029400de02000086
:020000040000fa
:04029800de02000082
:020000040000fa
:04029c00de0200007e
:020000040000fa
:0402a000de0200007a
:020000040000fa
:0402a400de02000076
:020000040000fa
:0402a800de02000072
:020000040000fa
:0402ac00de0200006e
:020000040000fa
:0402b000de0200006a
:020000040000fa
:0402b400de02000066
:020000040000fa
:0402b800de02000062
:020000040000fa
:0402bc00de0200005e
:020000040000fa
:0402c000de0200005a
:020000040000fa
:0402c400de02000056
:020000040000fa
:0402c800de02000052
:020000040000fa
:0402cc00de0200004e
:020000040000fa
:0402d000de0200004a
:020000040000fa
:0402d400de02000046
:020000040000fa
:0402d800de02000042
:020000040000fa
:0402dc00de0200003e
:020000040000fa
:0402e000de0200003a
:020000040000fa
:0402e400de02000036
:020000040000fa
:0402e800de02000032
:020000040000fa
:0402ec00de0200002e
:020000040000fa
:0402f000de0200002a
:020000040000fa
:0402f400de02000026
:020000040000fa
:0402f800de02000022
:020000040000fa
:0402fc00de0200001e
:020000040000fa
:04030000de02000019
:020000040000fa
:04030400de02000015
:020000040000fa
:04030800de02000011
:020000040000fa
:04030c00de0200000d
:020000040000fa
:04031000de02000009
:020000040000fa
:04031400de02000005
:020000040000fa
:04031800de02000001
:020000040000fa
:04031c00de020000fd
:020000040000fa
:04032000de020000f9
:020000040000fa
:04032400de020000f5
:020000040000fa
:04032800de020000f1
:020000040000fa
:04032c00de020000ed
:020000040000fa
:04033000de020000e9
:020000040000fa
:04033400de020000e5
:020000040000fa
:04033800de020000e1
:020000040000fa
:04033c00de020000dd
:020000040000fa
:04034000de020000d9
:020000040000fa
:04034400de020000d5
:020000040000fa
:04034800de020000d1
:020000040000fa
:04034c00de020000cd
:020000040000fa
:04035000de020000c9
:020000040000fa
:100400004f8520000eff20000e0188000000000034
:10041000000020000000e000020032000001200087
:100420002002880014000700660007000000e000ba
:1004300003003a00c04b20000100200002003700fa
:100440000000200001002000810f70000100320038
:1004500014000700000020000000e000020032004d
:100460000000020000000000e402020000000000a2
:100470000040da000000fe004440a9000000200017
:100480000000e0000300320000002000a00188000e
:100490004440a800000006008a1f78008b1f7800e7
:1004a0000000060091018800800478000000eb0045
:1004b0001a003700e284440032a0b4009905ba0063
:1004c000e284440032a0b4009906ba00e2844400f9
:1004d00032a0b4000006eb00476fde00fd07b2005b
:1004e000636ce10003003a00ebff07000000eb0043
:1004f0000a003700606ce10004003a00005deb0088
:100500008b05e900fdff3e00040037006168e10053
:10051000010032000086eb000b00070019c7ba008b
:100520001905ba000e04e00003003a000a00e000da
:10053000e0ff3a0000000600fe07b2009e018800be
:100540008a047800f5ff3700395dba008b05e900b1
:100550000c003200295dba008b05e900080032006a
:100560000c00e00003003a00e284440032a0b40032
:10057000f5ff370019ddba008b05e900faff3a00f4
:100580008904e800e184440032a0b40000000600c1
:10059000801f78000000fa008560a90010c0b30039
:1005a00001e8b700301180000040780000e8b70093
:1005b0000080fa004f007800004006000040da009a
:0805c0000000fe000000050030
:020000040000fa
:1005c8000400fa000068ef000168ef005268ef00cd
:1005d8000000eb00000f78009d000700c600070030
:1005e800010037000000000001c8bf00e14f5000c3
:1005f800fcff3a0052c8bf00e14f50001c003a000f
:1006080000c8bf00ea4f500012003a000000eb009b
:1006180010079800080037009e00900020802000f6
:1006280000804000104078007d0007001e00900008
:100638000000e800100798001e0090009e0f500070
:10064800f5ff35000000eb00000f78005268ef005e
:100658002c00370001802000914078002080200085
:100668001e004000014878001e0fe80025003700f2
:10067800018020009140780060c6b30080cf500010
:1006880020003200018020009140780040c6b3006d
:1006980080cf500004003a0000aa2100f1fc23009a
:1006a8001a000700170037000180200091407800e9
:1006b80030c7b30080cf500003003a00a0022000ea
:1006c8003e0007000f0037000180200091407800ad
:1006d80030c6b30080cf500003003a0010c6b30004
:1006e8004f00070007003700018020009140780084
:1006f80070c7b30080cf500002003a0010c0b300aa
:1007080052e8b7000168ef00b7ff37000800fa00a9
:1007180020079800310798002e019000be01900034
:10072800028fbe001e4078000080fb002011880068
:1007380000000000111180000010200000806000ff
:100748000000e000fbff32001e4090000080fb002c
:100758002011880000000000111180000010200006
:10076800008060000000e000fbff32002e40900097
:100778000080fb002011880000000000111180009b
:1007880000102000008060000000e000fbff320045
:100798003e4090000080fb0020118800000000000f
:1007a8001111800000102000008060000000e000af
:1007b800fbff32000080fa00000006000400fa0087
:1007c800100798001e009000004f78001e80fb0064
:1007d8002011880000000000111180000010200086
:1007e800008060000000e000fbff32001e00900067
:1007f8004800de00004f78001e80fb0020118800b2
:10080800000000001111800000102000008060002e
:100818000000e000fbff32000080fa000000060044
:100828000200fa00004f78001e80fb0020118800ab
:1008380000000000111180000010200000806000fe
:100848000000e000fbff32000080fa000000060014
:100858000000fa0090022000303a8800213a800017
:10086800f0f32f0000806000203a8800213a8000d1
:1008780000fe2f0000806000203a88004827ef0023
:1008880040a7a9001200200080072000a10920002d
:1008980033742000804978008149780082497800c3
:1008a800120020006004200071052000237420003d
:1008b800804978008149780082497800000000006a
:1008c800113a8000000027008080600000002100ad
:1008d800808f5000faff3a0000000000113a8000b3
:1008e80000022000008060000000e000fbff3200f2
:1008f8000080fa00000006000000fa0021358000a0
:1009080000fe2f00008060007000b30020358800d2
:100918003136800000fe2f00008060003000b300f8
:10092800303688002002a9000111800090ff2f00b6
:10093800008060000011880020a2a9002062a900a0
:10094800001020004011880011118000f0f32f00e2
:1009580000806000101188008560a9009560a800db
:1009680021e2a8002342a8000080fa000000060047
:020000040000fa
:100978000008000054000000000000000000000013
:020000040000fa
:0200000401f009
:04000800ffffff00f7
:020000040000fa
:0200000401f009
:04000c00810000006f
:020000040000fa
:0200000401f009
:04001000a300000049
:020000040000fa
:0200000401f009
:040014005f00000089
:020000040000fa
:0200000401f009
:04001800f0000000f4
:00000001FF
